{
  "contractName": "VolatilityOracle",
  "abi": [
    {
      "constant": true,
      "inputs": [],
      "name": "VBTC",
      "outputs": [
        {
          "name": "",
          "type": "string"
        }
      ],
      "payable": false,
      "stateMutability": "view",
      "type": "function"
    },
    {
      "anonymous": false,
      "inputs": [
        {
          "indexed": false,
          "name": "nextStep",
          "type": "string"
        }
      ],
      "name": "LogConstructorInitiated",
      "type": "event"
    },
    {
      "anonymous": false,
      "inputs": [
        {
          "indexed": false,
          "name": "price",
          "type": "string"
        }
      ],
      "name": "LogPriceUpdated",
      "type": "event"
    },
    {
      "anonymous": false,
      "inputs": [
        {
          "indexed": false,
          "name": "description",
          "type": "string"
        }
      ],
      "name": "LogNewOraclizeQuery",
      "type": "event"
    },
    {
      "constant": false,
      "inputs": [],
      "name": "ExampleContract",
      "outputs": [],
      "payable": true,
      "stateMutability": "payable",
      "type": "function"
    },
    {
      "constant": false,
      "inputs": [
        {
          "name": "myid",
          "type": "bytes32"
        },
        {
          "name": "result",
          "type": "string"
        }
      ],
      "name": "__callback",
      "outputs": [],
      "payable": false,
      "stateMutability": "nonpayable",
      "type": "function"
    },
    {
      "constant": false,
      "inputs": [
        {
          "name": "myid",
          "type": "bytes32"
        },
        {
          "name": "result",
          "type": "string"
        },
        {
          "name": "proof",
          "type": "bytes"
        }
      ],
      "name": "__callback",
      "outputs": [],
      "payable": false,
      "stateMutability": "nonpayable",
      "type": "function"
    },
    {
      "constant": false,
      "inputs": [],
      "name": "updatePrice",
      "outputs": [],
      "payable": true,
      "stateMutability": "payable",
      "type": "function"
    }
  ],
  "bytecode": "0x608060405234801561001057600080fd5b50611969806100206000396000f30060806040526004361061006d576000357c0100000000000000000000000000000000000000000000000000000000900463ffffffff16806327dc297e1461007257806338bbfa50146100e9578063673a7e28146101a6578063b5e1fdc9146101b0578063c072dcf314610240575b600080fd5b34801561007e57600080fd5b506100e76004803603810190808035600019169060200190929190803590602001908201803590602001908080601f016020809104026020016040519081016040528093929190818152602001838380828437820191505050505050919291929050505061024a565b005b3480156100f557600080fd5b506101a46004803603810190808035600019169060200190929190803590602001908201803590602001908080601f0160208091040260200160405190810160405280939291908181526020018383808284378201915050505050509192919290803590602001908201803590602001908080601f0160208091040260200160405190810160405280939291908181526020018383808284378201915050505050509192919290505050610342565b005b6101ae610347565b005b3480156101bc57600080fd5b506101c56105af565b6040518080602001828103825283818151815260200191508051906020019080838360005b838110156102055780820151818401526020810190506101ea565b50505050905090810190601f1680156102325780820380516001836020036101000a031916815260200191505b509250505060405180910390f35b61024861064d565b005b610252610703565b73ffffffffffffffffffffffffffffffffffffffff163373ffffffffffffffffffffffffffffffffffffffff1614151561028b57600080fd5b80600590805190602001906102a1929190611898565b507f71f1a5645e51a2da828ffcf79cc17da88eb25e1bca8b9dced23210847a4769c1816040518080602001828103825283818151815260200191508051906020019080838360005b838110156103045780820151818401526020810190506102e9565b50505050905090810190601f1680156103315780820380516001836020036101000a031916815260200191505b509250505060405180910390a15050565b505050565b3073ffffffffffffffffffffffffffffffffffffffff163161039d6040805190810160405280600381526020017f55524c0000000000000000000000000000000000000000000000000000000000815250610a61565b111561045c577f621c2856e3b87f81235f8ac8a22bbb40a0142961960710d00b2b6c380902b57e60405180806020018281038252604b8152602001807f4f7261636c697a6520717565727920776173204e4f542073656e742c20706c6581526020017f6173652061646420736f6d652045544820746f20636f76657220666f7220746881526020017f652071756572792066656500000000000000000000000000000000000000000081525060600191505060405180910390a16105ad565b7f621c2856e3b87f81235f8ac8a22bbb40a0142961960710d00b2b6c380902b57e6040518080602001828103825260358152602001807f4f7261636c697a65207175657279207761732073656e742c207374616e64696e81526020017f6720627920666f722074686520616e737765722e2e000000000000000000000081525060400191505060405180910390a16105ab6040805190810160405280600381526020017f55524c0000000000000000000000000000000000000000000000000000000000815250608060405190810160405280605481526020017f6a736f6e2868747470733a2f2f6461746173657474652d7172707a627762737281526020017f6e2e6e6f772e73682f6373762d646174612d653435386132662f626974636f6981526020017f6e6974795f646174612e6a736f6e292e726f7773000000000000000000000000815250610e31565b505b565b60058054600181600116156101000203166002900480601f0160208091040260200160405190810160405280929190818152602001828054600181600116156101000203166002900480156106455780601f1061061a57610100808354040283529160200191610645565b820191906000526020600020905b81548152906001019060200180831161062857829003601f168201915b505050505081565b7f11a3fca63f87bd67d7f9f72b744acc8be2193705e7a734ac3a773d35d259e87b60405180806020018281038252604b8152602001807f436f6e7374727563746f722077617320696e697469617465642e2043616c6c2081526020017f27757064617465507269636528292720746f2073656e6420746865204f72616381526020017f6c697a652051756572792e00000000000000000000000000000000000000000081525060600191505060405180910390a1565b6000806000809054906101000a900473ffffffffffffffffffffffffffffffffffffffff1673ffffffffffffffffffffffffffffffffffffffff161480610773575060006107716000809054906101000a900473ffffffffffffffffffffffffffffffffffffffff166113d3565b145b156107845761078260006113de565b505b6000809054906101000a900473ffffffffffffffffffffffffffffffffffffffff1673ffffffffffffffffffffffffffffffffffffffff166338cc48316040518163ffffffff167c0100000000000000000000000000000000000000000000000000000000028152600401602060405180830381600087803b15801561080957600080fd5b505af115801561081d573d6000803e3d6000fd5b505050506040513d602081101561083357600080fd5b810190808051906020019092919050505073ffffffffffffffffffffffffffffffffffffffff16600160009054906101000a900473ffffffffffffffffffffffffffffffffffffffff1673ffffffffffffffffffffffffffffffffffffffff1614151561099b576000809054906101000a900473ffffffffffffffffffffffffffffffffffffffff1673ffffffffffffffffffffffffffffffffffffffff166338cc48316040518163ffffffff167c0100000000000000000000000000000000000000000000000000000000028152600401602060405180830381600087803b15801561091f57600080fd5b505af1158015610933573d6000803e3d6000fd5b505050506040513d602081101561094957600080fd5b8101908080519060200190929190505050600160006101000a81548173ffffffffffffffffffffffffffffffffffffffff021916908373ffffffffffffffffffffffffffffffffffffffff1602179055505b600160009054906101000a900473ffffffffffffffffffffffffffffffffffffffff1673ffffffffffffffffffffffffffffffffffffffff1663c281d19e6040518163ffffffff167c0100000000000000000000000000000000000000000000000000000000028152600401602060405180830381600087803b158015610a2157600080fd5b505af1158015610a35573d6000803e3d6000fd5b505050506040513d6020811015610a4b57600080fd5b8101908080519060200190929190505050905090565b6000806000809054906101000a900473ffffffffffffffffffffffffffffffffffffffff1673ffffffffffffffffffffffffffffffffffffffff161480610ad157506000610acf6000809054906101000a900473ffffffffffffffffffffffffffffffffffffffff166113d3565b145b15610ae257610ae060006113de565b505b6000809054906101000a900473ffffffffffffffffffffffffffffffffffffffff1673ffffffffffffffffffffffffffffffffffffffff166338cc48316040518163ffffffff167c0100000000000000000000000000000000000000000000000000000000028152600401602060405180830381600087803b158015610b6757600080fd5b505af1158015610b7b573d6000803e3d6000fd5b505050506040513d6020811015610b9157600080fd5b810190808051906020019092919050505073ffffffffffffffffffffffffffffffffffffffff16600160009054906101000a900473ffffffffffffffffffffffffffffffffffffffff1673ffffffffffffffffffffffffffffffffffffffff16141515610cf9576000809054906101000a900473ffffffffffffffffffffffffffffffffffffffff1673ffffffffffffffffffffffffffffffffffffffff166338cc48316040518163ffffffff167c0100000000000000000000000000000000000000000000000000000000028152600401602060405180830381600087803b158015610c7d57600080fd5b505af1158015610c91573d6000803e3d6000fd5b505050506040513d6020811015610ca757600080fd5b8101908080519060200190929190505050600160006101000a81548173ffffffffffffffffffffffffffffffffffffffff021916908373ffffffffffffffffffffffffffffffffffffffff1602179055505b600160009054906101000a900473ffffffffffffffffffffffffffffffffffffffff1673ffffffffffffffffffffffffffffffffffffffff1663524f3889836040518263ffffffff167c01000000000000000000000000000000000000000000000000000000000281526004018080602001828103825283818151815260200191508051906020019080838360005b83811015610da3578082015181840152602081019050610d88565b50505050905090810190601f168015610dd05780820380516001836020036101000a031916815260200191505b5092505050602060405180830381600087803b158015610def57600080fd5b505af1158015610e03573d6000803e3d6000fd5b505050506040513d6020811015610e1957600080fd5b81019080805190602001909291905050509050919050565b60008060008060009054906101000a900473ffffffffffffffffffffffffffffffffffffffff1673ffffffffffffffffffffffffffffffffffffffff161480610ea357506000610ea16000809054906101000a900473ffffffffffffffffffffffffffffffffffffffff166113d3565b145b15610eb457610eb260006113de565b505b6000809054906101000a900473ffffffffffffffffffffffffffffffffffffffff1673ffffffffffffffffffffffffffffffffffffffff166338cc48316040518163ffffffff167c0100000000000000000000000000000000000000000000000000000000028152600401602060405180830381600087803b158015610f3957600080fd5b505af1158015610f4d573d6000803e3d6000fd5b505050506040513d6020811015610f6357600080fd5b810190808051906020019092919050505073ffffffffffffffffffffffffffffffffffffffff16600160009054906101000a900473ffffffffffffffffffffffffffffffffffffffff1673ffffffffffffffffffffffffffffffffffffffff161415156110cb576000809054906101000a900473ffffffffffffffffffffffffffffffffffffffff1673ffffffffffffffffffffffffffffffffffffffff166338cc48316040518163ffffffff167c0100000000000000000000000000000000000000000000000000000000028152600401602060405180830381600087803b15801561104f57600080fd5b505af1158015611063573d6000803e3d6000fd5b505050506040513d602081101561107957600080fd5b8101908080519060200190929190505050600160006101000a81548173ffffffffffffffffffffffffffffffffffffffff021916908373ffffffffffffffffffffffffffffffffffffffff1602179055505b600160009054906101000a900473ffffffffffffffffffffffffffffffffffffffff1673ffffffffffffffffffffffffffffffffffffffff1663524f3889856040518263ffffffff167c01000000000000000000000000000000000000000000000000000000000281526004018080602001828103825283818151815260200191508051906020019080838360005b8381101561117557808201518184015260208101905061115a565b50505050905090810190601f1680156111a25780820380516001836020036101000a031916815260200191505b5092505050602060405180830381600087803b1580156111c157600080fd5b505af11580156111d5573d6000803e3d6000fd5b505050506040513d60208110156111eb57600080fd5b8101908080519060200190929190505050905062030d403a02670de0b6b3a76400000181111561122157600060010291506113cc565b600160009054906101000a900473ffffffffffffffffffffffffffffffffffffffff1673ffffffffffffffffffffffffffffffffffffffff1663adf59f9982600087876040518563ffffffff167c0100000000000000000000000000000000000000000000000000000000028152600401808481526020018060200180602001838103835285818151815260200191508051906020019080838360005b838110156112d95780820151818401526020810190506112be565b50505050905090810190601f1680156113065780820380516001836020036101000a031916815260200191505b50838103825284818151815260200191508051906020019080838360005b8381101561133f578082015181840152602081019050611324565b50505050905090810190601f16801561136c5780820380516001836020036101000a031916815260200191505b50955050505050506020604051808303818588803b15801561138d57600080fd5b505af11580156113a1573d6000803e3d6000fd5b50505050506040513d60208110156113b857600080fd5b810190808051906020019092919050505091505b5092915050565b6000813b9050919050565b60006113e86113ef565b9050919050565b60008061140f731d3b2638a7cc9f2cb3d298a3da7a90b67e5506ed6113d3565b11156114b057731d3b2638a7cc9f2cb3d298a3da7a90b67e5506ed6000806101000a81548173ffffffffffffffffffffffffffffffffffffffff021916908373ffffffffffffffffffffffffffffffffffffffff1602179055506114a76040805190810160405280600b81526020017f6574685f6d61696e6e657400000000000000000000000000000000000000000081525061187e565b6001905061187b565b60006114cf73c03a2615d5efaf5f49f60b7bb6583eaec212fdf16113d3565b11156115705773c03a2615d5efaf5f49f60b7bb6583eaec212fdf16000806101000a81548173ffffffffffffffffffffffffffffffffffffffff021916908373ffffffffffffffffffffffffffffffffffffffff1602179055506115676040805190810160405280600c81526020017f6574685f726f707374656e33000000000000000000000000000000000000000081525061187e565b6001905061187b565b600061158f73b7a07bcf2ba2f2703b24c0691b5278999c59ac7e6113d3565b11156116305773b7a07bcf2ba2f2703b24c0691b5278999c59ac7e6000806101000a81548173ffffffffffffffffffffffffffffffffffffffff021916908373ffffffffffffffffffffffffffffffffffffffff1602179055506116276040805190810160405280600981526020017f6574685f6b6f76616e000000000000000000000000000000000000000000000081525061187e565b6001905061187b565b600061164f73146500cfd35b22e4a392fe0adc06de1a1368ed486113d3565b11156116f05773146500cfd35b22e4a392fe0adc06de1a1368ed486000806101000a81548173ffffffffffffffffffffffffffffffffffffffff021916908373ffffffffffffffffffffffffffffffffffffffff1602179055506116e76040805190810160405280600b81526020017f6574685f72696e6b65627900000000000000000000000000000000000000000081525061187e565b6001905061187b565b600061170f736f485c8bf6fc43ea212e93bbf8ce046c7f1cb4756113d3565b111561177257736f485c8bf6fc43ea212e93bbf8ce046c7f1cb4756000806101000a81548173ffffffffffffffffffffffffffffffffffffffff021916908373ffffffffffffffffffffffffffffffffffffffff1602179055506001905061187b565b60006117917320e12a1f859b3feae5fb2a0a32c18f5a65555bbf6113d3565b11156117f4577320e12a1f859b3feae5fb2a0a32c18f5a65555bbf6000806101000a81548173ffffffffffffffffffffffffffffffffffffffff021916908373ffffffffffffffffffffffffffffffffffffffff1602179055506001905061187b565b60006118137351efaf4c8b3c9afbd5ab9f4bbc82784ab6ef8faa6113d3565b1115611876577351efaf4c8b3c9afbd5ab9f4bbc82784ab6ef8faa6000806101000a81548173ffffffffffffffffffffffffffffffffffffffff021916908373ffffffffffffffffffffffffffffffffffffffff1602179055506001905061187b565b600090505b90565b8060029080519060200190611894929190611898565b5050565b828054600181600116156101000203166002900490600052602060002090601f016020900481019282601f106118d957805160ff1916838001178555611907565b82800160010185558215611907579182015b828111156119065782518255916020019190600101906118eb565b5b5090506119149190611918565b5090565b61193a91905b8082111561193657600081600090555060010161191e565b5090565b905600a165627a7a723058206dcc5886a8151551ccd91e3142d224a3e9afa7217f648d4415e639dbf660842a0029",
  "source": "pragma solidity ^0.4.11;\n//import \"github.com/oraclize/ethereum-api/oraclizeAPI.sol\";\n//urls won't work on solc yet.\nimport \"./oraclizeAPI_0.5.sol\";\n\ncontract VolatilityOracle is usingOraclize {\n\n    string public VBTC;\n    event LogConstructorInitiated(string nextStep);\n    event LogPriceUpdated(string price);\n    event LogNewOraclizeQuery(string description);\n\n    function ExampleContract() payable {\n        LogConstructorInitiated(\"Constructor was initiated. Call 'updatePrice()' to send the Oraclize Query.\");\n    }\n\n    function __callback(bytes32 myid, string result) {\n        if (msg.sender != oraclize_cbAddress()) revert();\n        VBTC = result;\n        LogPriceUpdated(result);\n    }\n\n    function updatePrice() payable {\n        if (oraclize_getPrice(\"URL\") > this.balance) {\n            LogNewOraclizeQuery(\"Oraclize query was NOT sent, please add some ETH to cover for the query fee\");\n        } else {\n            LogNewOraclizeQuery(\"Oraclize query was sent, standing by for the answer..\");\n\n\t    \n            oraclize_query(\"URL\", \"json(https://datasette-qrpzbwbsrn.now.sh/csv-data-e458a2f/bitcoinity_data.json).rows\");\n        }\n    }\n}\n\n//How to acces endpoint\n\n\n//var data = {\"database\": \"csv-data\", \"rows\": [[\"2018-04-01 00:00:00 UTC\", 26.195671693117102], [\"2018-04-02 00:00:00 UTC\", 23.8913627282478], [\"2018-04-03 00:00:00 UTC\", 21.9345330105318], [\"2018-04-04 00:00:00 UTC\", 25.0430302443494], [\"2018-04-05 00:00:00 UTC\", 27.701299384335798], [\"2018-04-06 00:00:00 UTC\", 16.6619948445269], [\"2018-04-07 00:00:00 UTC\", 14.471105628403098], [\"2018-04-08 00:00:00 UTC\", 12.335753186148], [\"2018-04-09 00:00:00 UTC\", 18.077308839626], [\"2018-04-10 00:00:00 UTC\", 11.6043714949467], [\"2018-04-11 00:00:00 UTC\", 6.961395793956879], [\"2018-04-12 00:00:00 UTC\", 31.3284080806209], [\"2018-04-13 00:00:00 UTC\", 28.020187310815395], [\"2018-04-14 00:00:00 UTC\", 19.688335890282396], [\"2018-04-15 00:00:00 UTC\", 14.5797989033191], [\"2018-04-16 00:00:00 UTC\", 18.6816159405952], [\"2018-04-17 00:00:00 UTC\", 13.678317960648801], [\"2018-04-18 00:00:00 UTC\", 16.6016601582085], [\"2018-04-19 00:00:00 UTC\", 14.0580767075249], [\"2018-04-20 00:00:00 UTC\", 20.572244713805198], [\"2018-04-21 00:00:00 UTC\", 21.1558772203818], [\"2018-04-22 00:00:00 UTC\", 17.1106179583719], [\"2018-04-23 00:00:00 UTC\", 12.7974203095258], [\"2018-04-24 00:00:00 UTC\", 23.1752046965409], [\"2018-04-25 00:00:00 UTC\", 49.2946626869776], [\"2018-04-26 00:00:00 UTC\", 28.4071934866668], [\"2018-04-27 00:00:00 UTC\", 24.364223828758696], [\"2018-04-28 00:00:00 UTC\", 25.841692072564395], [\"2018-04-29 00:00:00 UTC\", 19.7038580274015], [\"2018-04-30 00:00:00 UTC\", 17.5014082809742]], \"truncated\": false, \"columns\": [\"Time\", \"Unnamed: 1\"], \"query\": {\"sql\": \"select * from [bitcoinity_data-3]\", \"params\": {}}, \"query_ms\": 1.4743804931640625, \"source\": \"From bitcoinity.org\", \"source_url\": \"https://data.bitcoinity.org/markets/volatility/30d/USD/coinbase?g=15&t=l\"}\n//console.log()\n",
  "sourcePath": "/Users/jherman/Desktop/projects/Vorpal/contracts/datasette-oracle.sol",
  "compiler": {
    "name": "solc",
    "version": "0.4.24+commit.e67f0147.Emscripten.clang"
  },
  "schemaVersion": "2.0.0",
  "updatedAt": "2018-05-30T13:34:01.858Z"
}